:040000000BEF00F012
:100008005082FACF02F0FBCF03F09DED1DF084EF94
:020018001EF0D8
:1008000000010000000A00000064000000E803008E
:100810000010270000A086010040420F008096983B
:100820000000E1F50500CA9A3B00803FCDCC3DD7E2
:10083000233C12833AB7D138C62737388635C0D61D
:1008400033CC2B32708930E7DB2EE53C1E42A20D03
:1008500000803F00204100C842007A44401C4650BE
:10086000C34724744997184BBCBE4C6B6E4E03159E
:100870005079AD60F3497158252E33662059252EE5
:100880003366205A252E33660A00494E56414C499C
:100890004420415247554D454E540A00494E564159
:1008A0004C494420434F4D4D414E440A00252E33C0
:1008B0006620252E336620252E33660A00554E4BC2
:1008C0004E4F574E2053544154450A004F55542023
:1008D0004F4620424F554E44530A002000006D0EF3
:1008E00000017F6F000E0001806FDED3250E000136
:1008F0009219D8B407D069C0D9FF6AC0DAFF92C094
:10090000DFFFCFD3000E0001826F000E816F6BC03E
:10091000F6FF6CC0F7FF0800F5502E0AD8A434D0BB
:100920000001828D00016B4B6C2B000E00018E6F5D
:10093000000E8D6F1ED08DC01EF08EC01FF0000EF9
:10094000216E0A0E206EF9EC20F06BC0F6FF6CC031
:10095000F7FF0800F5501E26000E1F22D00E1E24A1
:1009600000018D6FFF0E1F2000018E6F00016B4B89
:100970006C2B6BC0F6FF6CC0F7FF0800F55054EC11
:1009800021F0D8A00CD0D7D7000E00018E6F000E3A
:100990008D6F0001828903D00001828513D06BC066
:1009A000F6FF6CC0F7FF00016B4B6C2B0800F5CF16
:1009B00092F000019251000AD8B484D3660AD8B4E8
:1009C000EBD772D3070E00018215D8B415D30001FE
:1009D00082A905D0000E00018E6F060E8D6F7FC0BC
:1009E000D9FF80C0DAFFDECF8FF0DECF90F0DDCF11
:1009F00091F0030E00017F27000E8023000191AFCC
:100A000011D08FC010F090C011F091C012F031ECF5
:100A100021F010C08FF011C090F012C091F0030EC1
:100A200000018113000E0001886F000E876F000126
:100A30008F510001901100019111D8B491D0820E14
:100A40000001766FFF0E0001776F8FC078F090C0C5
:100A500079F091C07AF092C07BF0100E06D00001C0
:100A6000D8907B337A3379337833E82EF8D7000186
:100A70007851000176250001876F000E0001772173
:100A80000001886F00018707D8A0880787C01EF083
:100A900088C01FF0000E216E030E206EF9EC20F0CE
:100AA0001EC087F01FC088F087C016F088C017F0FE
:100AB000000E196E0A0E186EDCEC1CF016C087F0E2
:100AC00017C088F0000188AF04D000018707D8A0C4
:100AD0008807000187510008ACEC0DF033C089F0A5
:100AE00034C08AF035C08BF089C024F08AC025F06C
:100AF0008BC026F08FC027F090C028F091C029F05D
:100B00002DEC1AF024C089F025C08AF026C08BF0A5
:100B100089C010F08AC011F08BC012F0000E136E65
:100B2000800E146E3F0E156E94EC1CF0D8B005D0FC
:100B300000018707D8A0880713D089C010F08AC0A9
:100B400011F08BC012F0000E136E200E146E410EC9
:100B5000156E94EC1CF0D8A003D00001874B882BB5
:100B600000018EBF08D000018E511DE10D0E000165
:100B70008D5DD8B018D08FC03DF090C03EF091C0D0
:100B80003FF000018D51CBEC14F033C040F034C085
:100B900041F035C042F0F0EC16F03DC08FF03EC0A1
:100BA00090F03FC091F0000188BF08D0000188514B
:100BB00026E10A0E0001875DD8B021D000018F51D7
:100BC0000001901100019111D8B45BD08FC03AF0B0
:100BD00090C03BF091C03CF01CEC19F03A503B1037
:100BE0003C103D10D8A44DD0000188BF4AD0000170
:100BF000885105E1020E0001875DD8A042D089C06E
:100C000010F08AC011F08BC012F0700E136E890EB6
:100C1000146E400E156E94EC1CF0D8B003D0000199
:100C2000F70E02D00001F80E8727FF0E882300017F
:100C30008751ACEC0DF033C089F034C08AF035C078
:100C40008BF08FC010F090C011F091C012F089C0ED
:100C500013F08AC014F08BC015F0EFEC17F010C041
:100C600083F011C084F012C085F013C086F0000E2E
:100C700000018F6F000E0001906F000E0001916F58
:100C800033D08FC03AF090C03BF091C03CF01CECE8
:100C900019F03AC083F03BC084F03CC085F03DC001
:100CA00086F08FC063F090C064F091C065F083C09F
:100CB00018F084C019F085C01AF086C01BF0EBEC68
:100CC0001EF018C066F019C067F01AC068F00DEC8D
:100CD00020F063C08FF064C090F065C091F0000E0A
:100CE0000001886F000E876F010E0001926F0A0EDF
:100CF00000019219D8B41ED000019251040D010ECA
:100D0000F324F66E080EF420F76E0900F55000018A
:100D1000835D0900F550000184590900F550000178
:100D200085590900F55000018659D8A003D000016B
:100D3000922BDDD7030E000181150001766F000EA6
:100D4000000182150001776F0001765100017711D3
:100D5000D8B454D069C0D9FF6AC0DAFF2D0E4CD088
:100D60000001694B6A2B4AD083C010F084C011F097
:100D700085C012F086C013F000019251040D010EDF
:100D8000F324F66E080EF420F76E0900F5CF14F088
:100D90000900F5CF15F00900F5CF16F00A00F5CFE0
:100DA00017F01EEC1DF010C089F011C08AF012C0BF
:100DB0008BF013C08CF089C010F08AC011F08BC08A
:100DC00012F08CC013F00A0E146E000E156E000E99
:100DD000166E000E176EB8EC1EF010C089F011C030
:100DE0008AF012C08BF013C08CF000018951300FD3
:100DF00069C0D9FF6AC0DAFFDF6EB2D7000192077F
:100E000000019229D8B40ED0AFD769C0D9FF6AC00B
:100E1000DAFF300EDF6E0001694B6A2B0001870795
:100E2000D8A08807000188BF07D000018851EDE1F4
:100E300000018705D8B0E9D700018EBF0CD00001B2
:100E40008E5105E1090E00018D5DD8A004D0080E79
:100E50000001926F02D08DC092F00001925100010A
:100E60008D5F000E000192BFFF0E00018E5B00013E
:100E700092510001D8B409D069C0D9FF6AC0DAFF25
:100E80002E0EDF6E0001694B6A2B00019251ACEC13
:100E90000DF033C07CF034C07DF035C07EF08FC0E3
:100EA00027F090C028F091C029F07CC024F07DC0CC
:100EB00025F07EC026F02DEC1AF024C03AF025C0B3
:100EC0003BF026C03CF01CEC19F03AC083F03BC06C
:100ED00084F03CC085F03DC086F073D083C010F034
:100EE00084C011F085C012F086C013F00001925149
:100EF000040D010EF324F66E080EF420F76E0900BF
:100F0000F5CF14F00900F5CF15F00900F5CF16F074
:100F10000A00F5CF17F01EEC1DF010C089F011C0CB
:100F20008AF012C08BF013C08CF089C010F08AC018
:100F300011F08BC012F08CC013F00A0E146E000E6C
:100F4000156E000E166E000E176EB8EC1EF010C077
:100F500089F011C08AF012C08BF013C08CF0000130
:100F60008951300F69C0D9FF6AC0DAFFDF6E000116
:100F7000694B6A2B83C010F084C011F085C012F059
:100F800086C013F000019251040D010EF324F66E99
:100F9000080EF420F76E0900F5CF14F00900F5CF24
:100FA00015F00900F5CF16F00A00F5CF17F0B8ECF0
:100FB0001EF010C083F011C084F012C085F013C081
:100FC00086F00001920700019229D8B40ED086D78E
:100FD00069C0D9FF6AC0DAFF300EDF6E0001694BCD
:100FE0006A2B00018D07D8A08E0700018D510001EA
:100FF0008E11D8B459D0ECD700018D5100018E115B
:10100000D8A40DD000018351000184110001851185
:1010100000018611D8A403D000018D4B8E2B800EC9
:10102000000192BF7F0E0001766F00018D5100011B
:10103000925D00018E51800A00017659D8B003D02C
:101040008DC092F018D000018E51800A0001766F99
:101050000001925100018D5D800E000192BF7F0E54
:1010600000017659D8B007D00001925100018D6F70
:101070008E6B8DBF8E07030E000181150001766F08
:10108000000E000182150001776F0001765100010A
:101090007711D8B409D069C0D9FF6AC0DAFF2D0E24
:1010A000DF6E0001694B6A2B6BC0F6FF6CC0F7FF67
:1010B00000016B4B6C2B0800F5CF92F000019251B0
:1010C000D8A414D469C0D9FF6AC0DAFF000EDF6E5D
:1010D000120000017ABF10D0000E106EAA0E116E21
:1010E000430E126E78C013F079C014F07AC015F078
:1010F00094EC1CF0D8B002D0030E120000017DBFAA
:1011000010D0000E106EAA0E116E430E126E7BC030
:1011100013F07CC014F07DC015F094EC1CF0D8B036
:1011200002D0030E1200E3C010F0E4C011F0E5C0DD
:1011300012F031EC21F010C03DF011C03EF012C0B1
:101140003FF078C040F079C041F07AC042F0F0EC56
:1011500016F03DC086F03EC087F03FC088F0000E1C
:10116000106E000E116E000E126E86C013F087C056
:1011700014F088C015F094EC1CF0D8B002D0898827
:1011800015D086C024F087C025F088C026F0000E58
:10119000276E800E286EBF0E296E2DEC1AF024C02B
:1011A00086F025C087F026C088F08998E6C010F048
:1011B000E7C011F0E8C012F031EC21F010C03DF0B2
:1011C00011C03EF012C03FF07BC040F07CC041F047
:1011D0007DC042F0F0EC16F03DC089F03EC08AF0D0
:1011E0003FC08BF0000E106E000E116E000E126EDE
:1011F00089C013F08AC014F08BC015F094EC1CF079
:10120000D8B003D08D808B8416D089C024F08AC0DA
:1012100025F08BC026F0000E276E800E286EBF0EC4
:10122000296E2DEC1AF024C089F025C08AF026C062
:101230008BF08D908B9489C010F08AC011F08BC018
:1012400012F086C013F087C014F088C015F094EC3B
:101250001CF0D8B010D089C08CF08AC08DF08BC043
:101260008EF0580E0001836F78C080F079C081F055
:101270007AC082F00FD086C08CF087C08DF088C015
:101280008EF0590E0001836F7BC080F07CC081F02E
:101290007DC082F089A815D0E3C03DF0E4C03EF0E7
:1012A000E5C03FF08CC040F08DC041F08EC042F0F0
:1012B000F0EC16F03DC0E3F03EC0E4F03FC0E5F0D6
:1012C00014D0E3C063F0E4C064F0E5C065F08CC006
:1012D00066F08DC067F08EC068F00DEC20F063C042
:1012E000E3F064C0E4F065C0E5F08DA015D0E6C081
:1012F0003DF0E7C03EF0E8C03FF08CC040F08DC04C
:1013000041F08EC042F0F0EC16F03DC0E6F03EC079
:10131000E7F03FC0E8F014D0E6C063F0E7C064F047
:10132000E8C065F08CC066F08DC067F08EC068F0D4
:101330000DEC20F063C0E6F064C0E7F065C0E8F0B3
:10134000000E116E1E0E106EE5EC1FF08D0E276E56
:10135000C80E286E420E296E8CC024F08DC025F078
:101360008EC026F02DEC1AF024C03AF025C03BF0D8
:1013700026C03CF01CEC19F03AC08FF03BC090F056
:101380007EC024F07FC025F0000E276E0A0E266E68
:1013900044EC1FF0245000018F5D2550000190594E
:1013A000D8B058D0000E0001926F000E916F47D058
:1013B0008FC06AF090C06BF091C068F092C069F085
:1013C0007EC066F07FC067F03EEC13F066C084F02C
:1013D00067C085F0050E276EB50E286E3F0E296E8C
:1013E00084C018F085C019F01FEC21F018C024F05B
:1013F00019C025F01AC026F02DEC1AF024C03AF0DE
:1014000025C03BF026C03CF01CEC19F03AC093F02C
:101410003BC094F0898A8D828B8293C010F094C077
:1014200011F077EC20F0899A8D928B9293C010F096
:1014300094C011F077EC20F00001914B922B000149
:101440008F510001915D0001905100019259D8B077
:1014500024D1AED7000E0001926F000E916F47D0DD
:101460008FC06AF090C06BF091C068F092C069F0D4
:101470007EC066F07FC067F03EEC13F066C084F07B
:1014800067C085F0050E276EB50E286E3F0E296EDB
:1014900084C018F085C019F01FEC21F018C024F0AA
:1014A00019C025F01AC026F02DEC1AF024C03AF02D
:1014B00025C03BF026C03CF01CEC19F03AC093F07C
:1014C0003BC094F0898A8D828B8293C010F094C0C7
:1014D00011F077EC20F0899A8D928B9293C010F0E6
:1014E00094C011F077EC20F00001914B922B7EC05C
:1014F00024F07FC025F0000E276E140E266E44ECFB
:101500001FF024500001915D255000019259D8A090
:10151000A7D77EC018F07FC019F01FEC21F018C0CB
:101520001FF019C020F01AC021F0150E1C6E920E8B
:101530001D6E480E1E6EA7EC1AF01CC03AF01DC0BE
:101540003BF01EC03CF01CEC19F03AC093F03BC0DD
:1015500094F0050E276EB50E286E3F0E296E93C0CF
:1015600018F094C019F01FEC21F018C024F019C035
:1015700025F01AC026F02DEC1AF024C03AF025C050
:101580003BF026C03CF01CEC19F03AC093F03BC095
:1015900094F015D0898A8D828B8293C010F094C00C
:1015A00011F077EC20F0899A8D928B9293C010F015
:1015B00094C011F077EC20F00001914B922B7EC08B
:1015C00024F07FC025F0000E276E140E266E44EC2A
:1015D0001FF0241E251E244A252A00018F5124268F
:1015E00000019051252200019151245C000192518B
:1015F0002558D8A048D0CED78FC06AF090C06BF0E5
:1016000091C068F092C069F07EC066F07FC067F05C
:101610003EEC13F066C084F067C085F0050E276EBF
:10162000B50E286E3F0E296E84C018F085C019F0E3
:101630001FEC21F018C024F019C025F01AC026F0C4
:101640002DEC1AF024C03AF025C03BF026C03CF047
:101650001CEC19F03AC093F03BC094F0898A8D825B
:101660008B8293C010F094C011F077EC20F0899A2F
:101670008D928B9293C010F094C011F077EC20F013
:101680000001914B922B00018F510001915D0001EF
:10169000905100019259D8A0AFD780C066F081C0A8
:1016A00067F082C068F07EC069F07FC06AF0000118
:1016B00083515DEC0BF0000E12000001746F00010D
:1016C00068AF07D0520E00017419D8B402D0030ECF
:1016D0001200580E00017419D8A435D0000E106EF7
:1016E000AA0E116E430E126E66C013F067C014F09E
:1016F00068C015F094EC1CF0D8B002D0030E1200B4
:10170000E3C010F0E4C011F0E5C012F031EC21F0BC
:1017100010C03DF011C03EF012C03FF066C040F076
:1017200067C041F068C042F0F0EC16F03DC06DF0CB
:101730003EC06EF03FC06FF066C0E3F067C0E4F0FB
:1017400068C0E5F0D1D0590E00017419D8A435D085
:10175000000E106EAA0E116E430E126E66C013F0CC
:1017600067C014F068C015F094EC1CF0D8B002D03B
:10177000030E1200E6C010F0E7C011F0E8C012F04E
:1017800031EC21F010C03DF011C03EF012C03FF02E
:1017900066C040F067C041F068C042F0F0EC16F05F
:1017A0003DC06DF03EC06EF03FC06FF066C0E6F029
:1017B00067C0E7F068C0E8F097D05A0E00017419CE
:1017C000D8A435D0000E106E200E116E410E126E90
:1017D00066C013F067C014F068C015F094EC1CF0FC
:1017E000D8B002D0030E1200E9C010F0EAC011F028
:1017F000EBC012F031EC21F010C03DF011C03EF012
:1018000012C03FF066C040F067C041F068C042F0CF
:10181000F0EC16F03DC06DF03EC06EF03FC06FF0D2
:1018200066C0E9F067C0EAF068C0EBF05DD0520E28
:1018300000017419D8A458D066C024F067C025F000
:1018400068C026F0330E276E330E286E3E0E296ECA
:101850002DEC1AF024C066F025C067F026C068F0B1
:1018600066C010F067C011F068C012F0000E136E71
:10187000340E146EC30E156E94EC1CF0D8A010D06C
:10188000000E106E340E116E430E126E66C013F011
:1018900067C014F068C015F094EC1CF0D8B002D00A
:1018A000030E120046C010F047C011F048C012F0FD
:1018B00031EC21F010C03DF011C03EF012C03FF0FD
:1018C00066C040F067C041F068C042F0F0EC16F02E
:1018D0003DC06DF03EC06EF03FC06FF066C046F098
:1018E00067C047F068C048F0000E106E000E116E21
:1018F000000E126E6DC013F06EC014F06FC015F0C4
:1019000094EC1CF0D8B006D089888D808B848C80B4
:101910008C8419D089988D908B948C908C946DC008
:1019200024F06EC025F06FC026F0000E276E800EEA
:10193000286EBF0E296E2DEC1AF024C06DF025C064
:101940006EF026C06FF0000E116E320E106EE5ECD8
:101950001FF08D0E276EC80E286E420E296E6DC0C8
:1019600024F06EC025F06FC026F02DEC1AF024C0D4
:101970003AF025C03BF026C03CF01CEC19F03AC010
:101980006BF03BC06CF0580E00017419D8A442D023
:1019900069C018F06AC019F01FEC21F018C01FF0E0
:1019A00019C020F01AC021F0150E1C6E920E1D6E8B
:1019B000480E1E6EA7EC1AF01CC03AF01DC03BF09A
:1019C0001EC03CF01CEC19F03AC072F03BC073F042
:1019D000000E0001716F000E706F11D0898A72C005
:1019E00010F073C011F077EC20F0899A72C010F0FB
:1019F00073C011F077EC20F00001704B712B0001E7
:101A00006B510001705D00016C5100017159D8B03B
:101A1000A1D0E4D7590E00017419D8A444D069C0EC
:101A200018F06AC019F01FEC21F018C01FF019C09F
:101A300020F01AC021F0150E1C6E920E1D6E480E7D
:101A40001E6EA7EC1AF01CC03AF01DC03BF01EC081
:101A50003CF01CEC19F03AC072F03BC073F0000E81
:101A60000001716F000E706F13D08D828B8272C077
:101A700010F073C011F077EC20F08D928B9272C051
:101A800010F073C011F077EC20F00001704B712B57
:101A900000016B510001705D00016C510001715932
:101AA000D8B058D0E2D75A0E00017419D8A427D064
:101AB000030E0001736FE50E726F000E0001716F6F
:101AC000000E706F11D08C8272C010F073C011F0D4
:101AD00077EC20F08C9272C010F073C011F077ECAC
:101AE00020F00001704B712B00016B510001705D03
:101AF00000016C5100017159D8B02CD0E4D7520EBE
:101B000000017419D8A426D0030E0001736FE50EEE
:101B1000726F000E0001716F000E706F11D08C8615
:101B200072C010F073C011F077EC20F08C9672C088
:101B300010F073C011F077EC20F00001704B712BA6
:101B400000016B510001705D00016C510001715981
:101B5000D8A0E5D7000E1200396E39AEFBD0396C33
:101B60003950800A120FD8A091D0000E216E030EBA
:101B7000206E000E196E0A0E186E000E136E640EA3
:101B8000126E3950106E116A10BE110616EC1EF05E
:101B900010C016F011C017F0DCEC1CF0090E162472
:101BA0001E6E000E17201F6EF9EC20F0290E1E2469
:101BB000F66E080E1F20F76E0900F5CF27F009001A
:101BC000F5CF28F00A00F5CF29F0000E196E640E4B
:101BD000186E3950166E176A16BE1706DCEC1CF02C
:101BE000120E16241E6E000E17201F6E000E216EA0
:101BF000030E206EF9EC20F0290E1E24F66E080E5E
:101C00001F20F76E0900F5CF24F00900F5CF25F06D
:101C10000A00F5CF26F02DEC1AF024C036F025C0CE
:101C200037F026C038F036C024F037C025F038C071
:101C300026F0000E216E030E206E000E136E0A0EAB
:101C4000126E3950106E116A10BE110616EC1EF09D
:101C500010C01EF011C01FF0F9EC20F0290E1E2458
:101C6000F66E080E1F20F76E0900F5CF27F0090069
:101C7000F5CF28F00A00F5CF29F02DEC1AF024C09A
:101C800033F025C034F026C035F012003950800AF8
:101C9000750FD8A04DD0000E196E0A0E186E39506F
:101CA000166E176A16BE1706DCEC1CF0090E162419
:101CB0001E6E000E17201F6E000E216E030E206E8A
:101CC000F9EC20F0290E1E24F66E080E1F20F76E88
:101CD0000900F5CF24F00900F5CF25F00A00F5CF73
:101CE00026F0000E216E030E206E000E136E0A0EFB
:101CF000126E3950106E116A10BE110616EC1EF0ED
:101D000010C01EF011C01FF0F9EC20F0290E1E24A7
:101D1000F66E080E1F20F76E0900F5CF27F00900B8
:101D2000F5CF28F00A00F5CF29F02DEC1AF0A7D74F
:101D30003950030D290EF324F66E080EF420F76EC9
:101D40000900F5CF33F00900F5CF34F00A00F5CFE4
:101D500035F012003950800A120FD8A091D0000E31
:101D6000216E030E206E000E196E0A0E186E000E04
:101D7000136E640E126E3950106E116A10BE110689
:101D800016EC1EF010C016F011C017F0DCEC1CF0C1
:101D9000090E16241E6E000E17201F6EF9EC20F09F
:101DA000500E1E24F66E080E1F20F76E0900F5CFA8
:101DB00027F00900F5CF28F00A00F5CF29F0000E32
:101DC000196E640E186E3950166E176A16BE170615
:101DD000DCEC1CF0120E16241E6E000E17201F6E77
:101DE000000E216E030E206EF9EC20F0500E1E2422
:101DF000F66E080E1F20F76E0900F5CF24F00900DB
:101E0000F5CF25F00A00F5CF26F02DEC1AF024C00E
:101E100036F025C037F026C038F036C024F037C081
:101E200025F038C026F0000E216E030E206E000E45
:101E3000136E0A0E126E3950106E116A10BE110622
:101E400016EC1EF010C01EF011C01FF0F9EC20F0CF
:101E5000500E1E24F66E080E1F20F76E0900F5CFF7
:101E600027F00900F5CF28F00A00F5CF29F02DEC76
:101E70001AF024C033F025C034F026C035F012002B
:101E80003950800A750FD8A04DD0000E196E0A0E79
:101E9000186E3950166E176A16BE1706DCEC1CF069
:101EA000090E16241E6E000E17201F6E000E216EE6
:101EB000030E206EF9EC20F0500E1E24F66E080E74
:101EC0001F20F76E0900F5CF24F00900F5CF25F0AB
:101ED0000A00F5CF26F0000E216E030E206E000ED4
:101EE000136E0A0E126E3950106E116A10BE110672
:101EF00016EC1EF010C01EF011C01FF0F9EC20F01F
:101F0000500E1E24F66E080E1F20F76E0900F5CF46
:101F100027F00900F5CF28F00A00F5CF29F02DECC5
:101F20001AF0A7D73950030D500EF324F66E080EA1
:101F3000F420F76E0900F5CF33F00900F5CF34F047
:101F40000A00F5CF35F0120035503610D8B40BD05A
:101F500035C0D9FF36C0DAFF33C0DEFF34C0DDFF45
:101F600002D0334A342A33C0D9FF34C0DAFFDF50FD
:101F7000386E38500CEC21F0D8B0F3D7000E396E23
:101F80002D0E3818D8A403D0010E396E04D02B0EB4
:101F90003818D8A402D0334A342A000E386E000E06
:101FA0003B6E000E3C6E000E3D6E000E3E6E000E4F
:101FB0003A6E39B80AD033C0D9FF34C0DAFF2E0EDA
:101FC000DE18D8A402D039883CD033C0D9FF34C041
:101FD000DAFFDF5054EC21F0D8A036D03982080E59
:101FE0003818D8B42CD039B83A06382A3BC010F08B
:101FF0003CC011F03DC012F03EC013F00A0E146E4A
:10200000000E156E000E166E000E176E19EC1FF006
:1020100010C03BF011C03CF012C03DF013C03EF0C8
:1020200033C0D9FF34C0DAFFDF50376ED00E372609
:1020300037503B26000E3C223D223E2202D039A8DA
:102040003A2A334A342AB5D7000E386E33C0D9FF46
:1020500034C0DAFF650EDE18D8B408D033C0D9FF1B
:1020600034C0DAFF450EDE18D8A45ED0334A342AD5
:1020700033C0D9FF34C0DAFF2D0EDE18D8A402D049
:10208000398608D033C0D9FF34C0DAFF2B0EDE18F2
:10209000D8A402D0334A342A33C0D9FF34C0DAFF7F
:1020A000300EDE18D8B4F6D733C0D9FF34C0DAFF0B
:1020B000DF5054EC21F0D8A035D033C0D9FF34C064
:1020C000DAFFDF50D00F386E334A342A33C0D9FFDD
:1020D00034C0DAFFDF5054EC21F0D8A023D033C055
:1020E000D9FF34C0DAFFDF50376E38500A0DF35095
:1020F0003724D00F386E334A342A33C0D9FF34C066
:10210000DAFFDF5054EC21F0D8A00CD033C0D9FF57
:1021100034C0DAFFDF50376E38500A0DF3503724E1
:10212000D00F386E39B6386C38503A2635503610E4
:10213000D8A439A208D035C0D9FF36C0DAFF33C0E1
:10214000DEFF34C0DDFF3BC018F03CC019F03DC0DD
:102150001AF03EC01BF0DAEC1DF018C03BF019C0BD
:102160003CF01AC03DF03B503C103D10D8A407D0C5
:10217000000E336E000E346E000E356E12003AAE55
:1021800056D03A6C16D03BC01CF03CC01DF03DC090
:102190001EF0030E1F6E150E206E500E216EA7EC62
:1021A0001AF01CC03BF01DC03CF01EC03DF0F60E06
:1021B0003A263A50800A760FD8A016D0E4D73BC012
:1021C0001CF03CC01DF03DC01EF0000E1F6E200E26
:1021D000206E410E216EA7EC1AF01CC03BF01DC012
:1021E0003CF01EC03DF03A063A50D8A4E8D73BC0B8
:1021F00010F03CC011F03DC012F0000E136E800EC6
:10220000146E000E156E94EC1CF0D8B061D039A09D
:1022100007D0000E336E800E346E800E356E1200C5
:10222000000E336E800E346E000E356E12003A5082
:10223000800A7F0FD8B017D04BD03BC024F03CC0F1
:1022400025F03DC026F0030E276E150E286E500EA9
:10225000296E2DEC1AF024C03BF025C03CF026C0BE
:102260003DF0F60E3A260A0E3A60E7D715D03BC08D
:1022700024F03CC025F03DC026F0000E276E200E55
:10228000286E410E296E2DEC1AF024C03BF025C0BB
:102290003CF026C03DF03A063A50D8A4E8D7FF0EED
:1022A000106E7F0E116E7F0E126E3BC013F03CC09D
:1022B00014F03DC015F094EC1CF0D8B009D039B042
:1022C000A8D7000E336E800E346E000E356E1200ED
:1022D00039A00ED03BC010F03CC011F03DC012F050
:1022E00031EC21F010C03BF011C03CF012C03DF0C9
:1022F0003BC033F03CC034F03DC035F01200000E5E
:102300000001A26FECC03AF0EDC03BF0EEC03CF033
:102310001CEC19F03AC0A0F03BC0A1F095C0D9FF69
:1023200096C0DAFF470EDE18D8B45AD173D1000137
:1023300020EE04F09551D9269651DA22460EDE1889
:10234000D8A40FD0000120EE05F09551D926965162
:10235000DA22DECFECF0DECFEDF0DDCFEEF0000ED6
:102360001200000120EE04F09551D9269651DA2290
:10237000DF500001A26F000120EE05F09551D92633
:102380009651DA22DECF9DF0DECF9EF0DDCF9FF0BA
:10239000570E0001A26504D05A0E0001A26507D0B5
:1023A000520E0001A219D8B402D0020E1200000190
:1023B00020EE08F09551D9269651DA22DF50D8A4A4
:1023C0000FD09DC066F09EC067F09FC068F0A0C0AF
:1023D00069F0A1C06AF00001A2515DEC0BF012009F
:1023E000000120EE08F09551D9269651DA22460ECA
:1023F000DE18D8A422D0000120EE09F09551D9268C
:102400009651DA22DECF3AF0DECF3BF0DDCF3CF062
:102410001CEC19F03AC0A0F03BC0A1F09DC066F0E2
:102420009EC067F09FC068F0A0C069F0A1C06AF0CC
:102430000001A2515DEC0BF01200000120EE08F04B
:102440009551D9269651DA22590EDE18D8A45DD0BE
:10245000000120EE09F09551D9269651DA22DECFFF
:1024600098F0DECF99F0DDCF9AF0000120EE0CF06D
:102470009551D9269651DA22DF50D8A413D09DC0A9
:1024800078F09EC079F09FC07AF098C07BF099C038
:102490007CF09AC07DF0A0C07EF0A1C07FF069EC16
:1024A00008F01200000120EE0CF09551D92696514B
:1024B000DA22460EDE18D8A426D0000120EE0DF058
:1024C0009551D9269651DA22DECF3AF0DECF3BF095
:1024D000DDCF3CF01CEC19F03AC0A0F03BC0A1F0FD
:1024E0009DC078F09EC079F09FC07AF098C07BF0D4
:1024F00099C07CF09AC07DF0A0C07EF0A1C07FF0B2
:1025000069EC08F01200020E1200020E1200000127
:1025100020EE05F09551D9269651DA22DECF3AF019
:10252000DECF3BF0DDCF3CF01CEC19F03AC09BF065
:102530003BC09CF0000120EE04F09551D926965145
:10254000DA22530EDE18D8A407D09BC010F09CC02E
:1025500011F0E5EC1FF014D0000120EE04F09551CD
:10256000D9269651DA22500EDE18D8A407D09BC087
:1025700010F09CC011F077EC20F002D0020E120097
:10258000000E1200000120EE04F09551D92696515C
:10259000DA22DF500001A26F0001A2510001D8A48D
:1025A00007D0580E33EC20F0590E33EC20F064D0F5
:1025B000580E0001A219D8B40AD0590E0001A21970
:1025C000D8B405D05A0E0001A219D8A405D0000134
:1025D000A25133EC20F050D0020E1200010E120076
:1025E000000120EE01F09551D9269651DA22DECF76
:1025F0003AF0DECF3BF0DDCF3CF01CEC19F03A5066
:10260000010AD8B494D6050AD8B481D7180AD8B428
:10261000B9D7E4D795C0D9FF96C0DAFF4D0EDE18C2
:10262000D8B40BD027D08C9827D08C8825D08C8A12
:1026300023D08C9A21D0010E1200000120EE01F06F
:102640009551D9269651DA22DECF3AF0DECF3BF013
:10265000DDCF3CF01CEC19F03A500A0AD8B4E3D7AD
:10266000010AD8B4E2D7070AD8B4E1D7010AD8B42E
:10267000E0D7E1D7010E1200000E120066C024F070
:1026800067C025F0000E276E140E266E44EC1FF076
:1026900024C076F025C077F0010E0001716FF40EB2
:1026A000706F000170510001665D00017151000101
:1026B0006759D8B026D066C018F067C019F01FEC73
:1026C00021F018C01FF019C020F01AC021F0150E1B
:1026D0001C6E920E1D6E480E1E6EA7EC1AF01CC0EA
:1026E0003AF01DC03BF01EC03CF01CEC19F03AC0A3
:1026F00066F03BC067F012003AC066F03BC067F07E
:10270000120076C043F077C044F0D8904336443688
:10271000435000016A5D445000016B59D8B010D09D
:10272000D89000016B31446E00016A31436E435012
:102730000001685D445000016959D8B026D00AD024
:10274000000176510001685D00017751000169596F
:10275000D8B005D068C074F069C075F046D076C0B6
:1027600043F077C044F0431E441E434A442A00010C
:102770006A51432600016B51442200016851435CB9
:10278000000169514458D8B013D068C043F069C003
:1027900044F0431E441E434A442A00016A51432424
:1027A0000001746F00016B5144200001756F1DD052
:1027B00066C018F067C019F01FEC21F018C01FF0B8
:1027C00019C020F01AC021F0150E1C6E920E1D6E5D
:1027D000480E1E6EA7EC1AF01CC03AF01DC03BF06C
:1027E0001EC03CF01CEC19F087D770C043F071C0DC
:1027F00044F0431E441E434A442A000166514324C8
:102800000001726F0001675144200001736F72C0B4
:1028100024F073C025F0D89000017731436E000199
:102820007631266E43C027F044EC1FF024C072F0CE
:1028300025C073F0D89000017731446E00017631E5
:10284000436E00016851435C000169514458D8A0AF
:1028500027D072C01EF073C01FF074C020F075C086
:1028600021F0F9EC20F01EC06EF01FC06FF06EC0BA
:102870001EF06FC01FF074C020F075C021F0F9EC9D
:1028800020F01EC024F01FC025F076C026F077C0CF
:1028900027F044EC1FF024C066F025C067F04ED04E
:1028A00072C01EF073C01FF076C020F077C021F018
:1028B000F9EC20F0D8901F30436E1E300001666F97
:1028C00043C067F074C043F075C044F0431E441E1B
:1028D000434A442A640E43241E6E000E44201F6E99
:1028E00076C026F077C027F072C024F073C025F0C0
:1028F00044EC1FF024C020F025C021F0F9EC20F0BA
:102900001EC06EF01FC06FF074C043F075C044F07D
:10291000431E441E434A442A640E43241E6E000E86
:1029200044201F6E6EC020F06FC021F0F9EC20F043
:102930001E500001665F1F500001675B000170516F
:1029400000016627000171510001672366C018F07D
:1029500067C019F01FEC21F018C01FF019C020F05B
:102960001AC021F0150E1C6E920E1D6E480E1E6EC2
:10297000A7EC1AF01CC03AF01DC03BF01EC03CF0A2
:102980001CEC19F03AC06CF03BC06DF06CC066F006
:102990006DC067F012003C6E6D0E3C649FD0000E5F
:1029A000216E030E206E000E196E0A0E186E000EB8
:1029B000136E640E126E3CC010F0116A16EC1EF01D
:1029C00010C016F011C017F0DCEC1CF0090E162434
:1029D0001E6E000E17201F6EF9EC20F0290E1E242B
:1029E000F66E080E1F20F76E0900F5CF27F00900DC
:1029F000F5CF28F00A00F5CF29F0000E196E640E0D
:102A0000186E3CC016F0176ADCEC1CF0120E16248F
:102A10001E6E000E17201F6E000E216E030E206E1C
:102A2000F9EC20F0290E1E24F66E080E1F20F76E1A
:102A30000900F5CF24F00900F5CF25F00A00F5CF05
:102A400026F02DEC1AF024C039F025C03AF026C04B
:102A50003BF0000E216E030E206E000E136E0A0E68
:102A6000126E3CC010F0116A16EC1EF010C01EF081
:102A700011C01FF0F9EC20F0290E1E24F66E080E8E
:102A80001F20F76E0900F5CF27F00900F5CF28F0D9
:102A90000A00F5CF29F039C024F03AC025F03BC038
:102AA00026F02DEC1AF024C036F025C037F026C0F1
:102AB00038F036C024F037C025F038C026F0000EBC
:102AC000276E000E286E3F0E296E2DEC1AF024C0E2
:102AD00033F025C034F026C035F012000A0E3C64F5
:102AE0005DD0000E216E030E206E000E136E0A0ED6
:102AF000126E3CC010F0116A16EC1EF010C01EF0F1
:102B000011C01FF0F9EC20F0290E1E24F66E080EFD
:102B10001F20F76E0900F5CF27F00900F5CF28F048
:102B20000A00F5CF29F0000E196E0A0E186E3CC08F
:102B300016F0176ADCEC1CF0090E16241E6E000E4F
:102B400017201F6E000E216E030E206EF9EC20F090
:102B5000290E1E24F66E080E1F20F76E0900F5CF11
:102B600024F00900F5CF25F00A00F5CF26F02DEC72
:102B70001AF024C039F025C03AF026C03BF039C025
:102B800024F03AC025F03BC026F0000E276E000E60
:102B9000286E3F0E296E2DEC1AF099D73C50030D8C
:102BA000290EF324F66E080EF420F76E0900F5CF17
:102BB00024F00900F5CF25F00A00F5CF26F0000E2D
:102BC000276E000E286E3F0E296E2DEC1AF024C0E1
:102BD00033F025C034F026C035F01200000E00019D
:102BE000E06F000E0001E16F000E0001E26F000EC9
:102BF0000001CE6F000E0001CF6F8992D00E106ED3
:102C0000000E116E000E136E000E126E000E156E89
:102C1000100E146ECDEC20F0A3C010F0A4C011F083
:102C2000000E136E3B0E126E4EEC1EF010C0CEF076
:102C300011C0CFF00001CE510001CF11D8B412D095
:102C4000CEC0F6FFCFC0F7FFF86A070EF76404D0D6
:102C5000000EF56E0C0006D0F6CFE9FFF7CFEAFFC5
:102C6000000EEF6EA3C01DF0A4C01EF0DB0E1F6EA1
:102C7000080E206EE5EC1BF01DC0E1F01EC0E2F076
:102C80003BD0E1C0D9FFE2C0DAFF0001E051040D02
:102C9000D00EF324E16E000EF420E26EDFCFE7FFEA
:102CA0000001E14BE22BE1C03FF0E2C040F043EC19
:102CB00021F00001E051040D010EF326000EF42274
:102CC000D00EF324D96E000EF420DA6E3FC0DEFF82
:102CD00040C0DEFF41C0DEFF000E1D6E000E1E6E06
:102CE000DB0E1F6E080E206EE5EC1BF01DC0E1F040
:102CF0001EC0E2F00001E02B0001E1510001E211F1
:102D0000D8A4BFD7D00E0001956F000E0001966FBA
:102D10007FEC11F00001CD6F000E4D6E000E106EB5
:102D2000010E116E000E136E000E126E000E156E67
:102D3000280E146ECDEC20F0898243D0A50E000140
:102D4000696F000E00016A6F770E00016B6F080E4D
:102D500000016C6FE3C06DF0E4C06EF0E5C06FF091
:102D6000E6C070F0E7C071F0E8C072F0E9C073F03F
:102D7000EAC074F0EBC075F06FEC04F0A50E116EB4
:102D8000000E126E5FEC1DF012009C0E116E080E0C
:102D9000126E5FEC1DF012008A0E116E080E126E9C
:102DA0005FEC1DF01200CC0E116E080E126E5FEC7F
:102DB0001DF01200BD0E116E080E126E5FEC1DF0BC
:102DC00012000001CD51000AD8B4B8D7010AD8B416
:102DD000DCD7030AD8B4E0D7010AD8B4E4D7EAD7DD
:102DE0003FC043F0446A456A3E34433601E34480C1
:102DF00043500001626F42C043F0446A456A413467
:102E0000433601E3448043500001616F0001625189
:102E10000001D8B40FD0000161510001625DD8B04B
:102E200010D000016251000800016125436E180EA8
:102E3000436407D040C03DF041C03EF042C03FF087
:102E40001200000161510001D8B40FD0000162519D
:102E50000001615DD8B010D000016151000800018F
:102E60006225436E180E436407D03DC03DF03EC05E
:102E70003EF03FC03FF01200060E0001606F3FAE13
:102E800002D00001608F42AE02D00001608D3E8E04
:102E9000FF0E3D16FF0E3E16000E3F16418EFF0E32
:102EA0004016FF0E4116000E42160001615100014E
:102EB000625DD8B022D0D89040364136423600010B
:102EC00061070001625100016119D8B40FD00001FF
:102ED000600760C043F0070E4316D8B407D0EBD7A5
:102EE000D8903F323E323D320001622B00016151E9
:102EF00000016219D8B428D0F3D700016251000153
:102F0000615DD8B021D0D8903D363E363F360001C5
:102F100062070001625100016119D8B40FD00001AD
:102F2000600760C043F0070E4316D8B407D0EBD754
:102F3000D8904232413240320001612B0001615190
:102F400000016219D8A4F4D7000160AF0CD0FF0EC5
:102F50003D1AFF0E3E1AFF0E3F1A010E3D26000ECF
:102F60003E22000E3F22000160AD0CD0FF0E401A41
:102F7000FF0E411AFF0E421A010E4026000E41229A
:102F8000000E4222000E0001606F3D5040263E5070
:102F900041223F50422242AE0FD0FF0E401AFF0E98
:102FA000411AFF0E421A010E4026000E4122000E69
:102FB0004222010E0001606F40C010F041C011F0CC
:102FC00042C012F062C013F060C014F03DEC1CF07F
:102FD00010C03DF011C03EF012C03FF0120012C010
:102FE00016F0176A186A1134163601E31780165066
:102FF0001E6E1E50D8A409D0000E106E000E116E69
:10300000000E126E000E136E120015C016F0176A35
:10301000186A1434163601E3178016501D6E1D50C1
:10302000D8A409D0000E106E000E116E000E126EA4
:10303000000E136E1200118EFF0E1016FF0E1116E9
:10304000000E1216148EFF0E1316FF0E1416000E2D
:103050001516000E196E000E1A6E000E1B6E000E75
:103060001C6E7F0E1E5E1D50980F1E5E180E1D6E8C
:10307000D89019361A361B361C361350105C145073
:10308000115815501258D8A007D01350105E145084
:10309000115A1550125A1980D8901036113612361E
:1030A0001D2EE6D71EAE16D01E50800A970FD8B040
:1030B00009D0000E106E000E116E000E126E000E82
:1030C000136E1200D8901C321B321A3219321E3E77
:1030D000F9D715D0170E1E640FD0000E106E000E1B
:1030E000116E000E126E000E136E1200D89019367B
:1030F0001A361B361C361E061E50D8A4F7D719C028
:1031000010F01AC011F01BC012F01CC013F0120016
:10311000123413341B6E1B50D8A409D0000E106E4D
:10312000000E116E000E126E000E136E120015349A
:1031300016341A6E1A50D8A409D0000E106E000E64
:10314000116E000E126E000E136E1200128EFF0E24
:103150001016FF0E1116FF0E1216000E1316158E06
:10316000FF0E1316FF0E1416FF0E1516000E161680
:10317000000E166E000E176E000E186E000E196E01
:103180007F0E1B5E1A50A00F1B5E200E1A6ED89089
:1031900016361736183619361350105C145011585D
:1031A0001550125816501358D8A009D01350105E5D
:1031B0001450115A1550125A1650135A1680D8909E
:1031C00010361136123613361A2EE1D71BAE16D032
:1031D0001B50800A9F0FD8B009D0000E106E000E51
:1031E000116E000E126E000E136E1200D89019327E
:1031F0001832173216321B3EF9D715D01F0E1B643A
:103200000FD0000E106E000E116E000E126E000E2A
:10321000136E1200D89016361736183619361B065C
:103220001B50D8A4F7D716C010F017C011F018C063
:1032300012F019C013F012003CC03EF03F6A406A21
:103240003B343E3601E33F803E500001656F000194
:103250006551D8A409D0000E3A6E000E3B6E000EE8
:103260003C6E000E3D6E1200170E3E6E3AC03FF0EF
:103270003BC040F03CC041F03E28426E04D0D890A4
:10328000413240323F32422EFAD73F500001606F48
:103290003B8EFF0E3A16FF0E3B16000E3C163A50C0
:1032A0000001616F3B500001626F3C500001636F91
:1032B0000001646B8E0E0001655F000165AF19D0DF
:1032C00000016551800A8F0FD8B009D0000E3A6E08
:1032D000000E3B6E000E3C6E000E3D6E12000001B3
:1032E000D89064336333623361330001653FF7D7AD
:1032F0001AD0170E0001656511D0000E3A6E000E4F
:103300003B6E000E3C6E000E3D6E12000001D89028
:103310006137623763376437000165070001655123
:103320000001D8A4F3D7000160510001D8B409D03E
:103330000001641F631F621F616D000E622363231F
:10334000642361C03AF062C03BF063C03CF064C0EB
:103350003DF012000001686F580E00016819D8A4F2
:103360000FD0000E0001676F100E666F000E000197
:10337000E36F000E0001E46F000E0001E56F13D053
:10338000590E00016819D8A40ED0000E0001676F15
:10339000200E666F000E0001E66F000E0001E76F61
:1033A000000E0001E86F89988D908B948C90000E30
:1033B000116E010E106EE5EC1FF043C018F044C012
:1033C00019F0B1EC20F018C01FF019C020F01AC09D
:1033D00021F0150E1C6E920E1D6E480E1E6EA7EC8F
:1033E0001AF01CC03AF01DC03BF01EC03CF01CECB3
:1033F00019F03AC069F03BC06AF0580E0001681934
:10340000D8A40FD0898A69C010F06AC011F077EC97
:1034100020F0899A69C010F06AC011F077EC20F0B2
:1034200015D0590E00016819D8A410D08D828B8256
:1034300069C010F06AC011F077EC20F08D928B9289
:1034400069C010F06AC011F077EC20F081500001E3
:1034500066150009D8B41200D0D726C02AF02B6A0E
:103460002C6A25342A3601E32B802A502D6E2D50EC
:10347000D8A407D0000E246E000E256E000E266E16
:10348000120029C02AF02B6A2C6A28342A3601E35C
:103490002B802A50326E3250D8A407D0000E246EF2
:1034A000000E256E000E266E120032507B0F2D2668
:1034B00026C032F02950321A800E3216258E288E00
:1034C000FF0E2716FF0E2816000E2916000E2E6E70
:1034D000000E2F6E000E306E070E316E24A006D047
:1034E00027502E2628502F2229503022D8902632BD
:1034F00025322432D890273628362936312EEED779
:10350000090E316E24A006D027502E2628502F22D7
:1035100029503022D890263225322432D8903032A9
:103520002F322E32312EEED72EC010F02FC011F0D8
:1035300030C012F02DC013F032C014F03DEC1CF07E
:1035400010C024F011C025F012C026F012001EC0D9
:1035500022F0236A246A1D34223601E3238022509C
:10356000296E2950D8A407D0000E1C6E000E1D6EC7
:10357000000E1E6E120021C022F0236A246A20343D
:10358000223601E3238022502A6E2A50D8A407D085
:10359000000E1C6E000E1D6E000E1E6E1200000E40
:1035A000266E000E276E000E286E2A50890F295EA7
:1035B0001EC02AF021502A1A800E2A161D8EFF0ED8
:1035C0001C16FF0E1D16000E1E16208EFF0E1F1657
:1035D000FF0E2016000E2116180E256ED8902636E6
:1035E000273628361F501C5C20501D5821501E586D
:1035F000D8A007D01F501C5E20501D5A21501E5AC3
:103600002680D8901C361D361E36252EE7D726C0BC
:1036100010F027C011F028C012F029C013F02AC002
:1036200014F03DEC1CF010C01CF011C01DF012C0D5
:103630001EF01200000E196E17AE0AD0171E161ECD
:10364000151E146C000E152216221722010E196E7B
:1036500013AE0AD0131E121E111E106C000E112282
:1036600012221322010E191A000E1A6E000E1B6E82
:10367000000E1C6E000E1D6E145015101610171043
:10368000D8B42AD0010E186E06D0D890143615364C
:1036900016361736182A17AEF8D7D8901A361B36B2
:1036A0001C361D361450105C155011581650125807
:1036B00017501358D8A009D01450105E1550115A45
:1036C0001650125A1750135A1A80D89017321632C1
:1036D00015321432182EE1D71950D8B408D01D1E57
:1036E0001C1E1B1E1A6C000E1B221C221D221AC03F
:1036F00010F01BC011F01CC012F01DC013F012001E
:10370000AC94B40E106EC40E116E040E126E000E48
:10371000136E1EC014F01FC015F0000E15BEFF0E74
:10372000166E176E1AEC1BF010C020F011C021F0BD
:1037300012C022F013C023F0FF0E2026FF0E21221C
:10374000FF0E2222FF0E232223BE08D02350221078
:10375000211028E1030E205CD8B024D0D00E106ECA
:10376000120E116E130E126E000E136E1EC014F0A8
:103770001FC015F0000E15BEFF0E166E176E1AEC68
:103780001BF010C020F011C021F012C022F013C0B5
:1037900023F0FF0E2026FF0E2122FF0E2222FF0E15
:1037A0002322AC8423BE120023502210211004E1F6
:1037B000030E205CD8A0120020C0AFFFB896AC9CCE
:1037C000AC98AB88AB8EAC8A12001D501E10D8A4EA
:1037D00004D04BC01DF04CC01EF01D501E10D8A4CC
:1037E00005D0000E1D6E000E1E6E12001DC016F0DC
:1037F0001EC017F01FC018F020C019F095EC1FF084
:1038000016501D2617501E221DC0D9FF1EC0DAFFFC
:10381000DF50D8A409D0000E4B6E000E4C6E4BC08A
:103820001DF04CC01EF012001DC016F01EC017F097
:103830001FC018F020C019F0BDEC1FF016501D2459
:103840004B6E17501E204C6E4BC0D9FF4CC0DAFF98
:10385000DF50D8B409D04BC0D9FF4CC0DAFF000EFE
:10386000DF6E4B4A4C2A04D0000E4B6E000E4C6E9D
:103870001DC01DF01EC01EF012001350D8B405D09C
:10388000105011101210D8A40CD0000E106E000EA3
:10389000116E000E126E1200132AD89012321132DD
:1038A0001032000E1014156E000E1114166EFE0E5E
:1038B0001214176E155016101710D8B40CD0ECD780
:1038C000132A010E1026000E1122000E1222D8908B
:1038D000123211321032000E1014156E000E111437
:1038E000166EFF0E1214176E155016101710D8B45E
:1038F00006D0E6D71306D89010361136123611BE10
:1039000003D0020E1360F6D713A0119ED890133285
:10391000135012121450D8A4128E10C010F011C0FF
:1039200011F012C012F0120012AE16D010C016F034
:1039300011C017F012C018F0161E171E181E162AF6
:10394000000E17221822000E1624106E000E1720EB
:10395000116E800E1820126E15AE16D013C016F020
:1039600014C017F015C018F0161E171E181E162AC0
:10397000000E17221822000E1624136E000E1720B8
:10398000146E800E1820156E000E101A000E111AFB
:10399000800E121A000E131A000E141A800E151A39
:1039A0001350105C1450115815501258D8B002D052
:1039B000D8901200D8801200000E1B6E19AE06D0EF
:1039C000186C191ED8B0192A010E1B6E17AE06D03E
:1039D000166C171ED8B0172A010E1B1A000E1D6E8A
:1039E000000E1C6E18501910D8B41CD0010E1A6E9F
:1039F00004D0D890183619361A2A19AEFAD7D890AA
:103A00001C361D361850165C19501758D8A005D012
:103A10001850165E1950175A1C80D8901932183257
:103A20001A2EEDD71B50D8B404D01C6C1D1ED8B074
:103A30001D2A1CC016F01DC017F01200000E186ED3
:103A4000000E196E000E1A6E000E1B6E145015102B
:103A500016101710D8B42AD0010E1C6E06D0D890BC
:103A600014361536163617361C2A17AEF8D7D890E6
:103A7000183619361A361B361450105C155011586A
:103A80001650125817501358D8A009D01450105E71
:103A90001550115A1650125A1750135A1880D890B0
:103AA00017321632153214321C2EE1D718C010F01E
:103AB00019C011F01AC012F01BC013F01200000E52
:103AC000156E1DD01550010D11C013F012C014F069
:103AD000F3501326F450142213C0F6FF14C0F7FF5E
:103AE000F86A070EF76403D00800F55005D0F6CF4A
:103AF000E9FFF7CFEAFFEF5075EC21F0152A1550DA
:103B0000010D11C013F012C014F0F3501326F4503D
:103B1000142213C0F6FF14C0F7FFF86A070EF7640B
:103B200003D00800F55005D0F6CFE9FFF7CFEAFF44
:103B3000EF500009D8B41200C5D70600E9CF04F051
:103B4000EACF05F0E1CF06F0E2CF07F0D9CF08F0D9
:103B5000DACF09F0F3CF0AF0F4CF0BF0F6CF0CF088
:103B6000F7CF0DF0F8CF0EF0F5CF0FF09EBA58EC6E
:103B700020F0F2B47BEC21F00FC0F5FF0EC0F8FF8F
:103B80000DC0F7FF0CC0F6FF0BC0F4FF0AC0F3FF37
:103B900009C0DAFF08C0D9FF07C0E2FF06C0E1FF95
:103BA00005C0EAFF04C0E9FF03C0FBFF02C0FAFF43
:103BB00050921100000E216E8E0E206E1BAE11D0A1
:103BC0001B1E1A1E191E186C000E19221A221B2207
:103BD000010E216E06D0D8901B321A3219321832DB
:103BE000202A000E18141C6E000E19141D6E000EF3
:103BF0001A141E6EFF0E1B141F6E1C501D101E107B
:103C00001F10D8A4E8D718C010F019C011F01AC0BE
:103C100012F020C013F021C014F03DEC1CF010C0D5
:103C200018F011C019F012C01AF01200000E156E33
:103C300011AE06D0106C111ED8B0112A010E156EEF
:103C400013AE04D0126C131ED8B0132A12501310E6
:103C5000D8B418D0010E146E04D0D8901236133692
:103C6000142A13AEFAD71250105C13501158D8A072
:103C700004D01250105E1350115AD89013321232E1
:103C8000142EF1D71550D8B404D0106C111ED8B032
:103C9000112A10C010F011C011F0120010C0F6FF70
:103CA00011C0F7FFF86A070EF76403D00800F5505B
:103CB00005D0F6CFE9FFF7CFEAFFEF501218D8A4EE
:103CC00005D010C010F011C011F012001050146E89
:103CD0001150156E104A112A14C0F6FF15C0F7FFD7
:103CE000F86A070EF76403D00800F55005D0F6CF48
:103CF000E9FFF7CFEAFFEF500009D8A4CFD7000EB5
:103D0000106E000E116E120001EE00F0280EEE6A29
:103D1000E806FDE100EEE3F0090EEE6AE806FDE1DB
:103D200000EE46F0080EEE6AE806FDE1080EF66EBB
:103D3000430EF76E000EF86E0900F5CFECF00900A7
:103D4000F5CFEDF00900F5CFEEF00B0EF66E430E59
:103D5000F76E000EF86E0900F5CF4EF00900F5CFB2
:103D60004FF050905092000EF86E000195EF20F049
:103D70001450151016101710D8B424D0010E186E58
:103D800006D0D8901436153616361736182A17AEC0
:103D9000F8D71450105C155011581650125817507F
:103DA0001358D8A008D01450105E1550115A165050
:103DB000125A1750135AD89017321632153214323D
:103DC000182EE7D710C010F011C011F012C012F079
:103DD00013C013F012008E0E206E06D0D8901B3246
:103DE0001A3219321832202A000E18141C6E000ED6
:103DF00019141D6E000E1A141E6EFF0E1B141F6E7A
:103E00001C501D101E101F10D8A4E8D718C010F0A9
:103E100019C011F01AC012F020C013F0000E146E79
:103E20003DEC1CF010C018F011C019F012C01AF0CF
:103E30001200000E186E000E196E000E1A6E000EA3
:103E40001B6E10A008D014501826155019221650B9
:103E50001A2217501B22D8901436153616361736EC
:103E6000D890133212321132103210501110121039
:103E70001310D8A4E6D718C010F019C011F01AC05A
:103E800012F01BC013F01200000E296E000E286EF7
:103E900026502710D8B41CD0010E2A6E04D0D8901A
:103EA000263627362A2A27AEFAD7D890283629363A
:103EB0002650245C27502558D8A005D02650245ED3
:103EC0002750255A2880D890273226322A2EEDD71F
:103ED00028C024F029C025F01200C180C182C1840D
:103EE000C18680508150825083508450929092922B
:103EF00094909598959A9298929A96909692949476
:103F0000949295909592959495969388938AF19E24
:103F10008A888A8A898089828B908C888C9A898AFF
:103F20008D828B828C828C861200000E1C6E000E9D
:103F30001B6E04D0164A172A1B4A1C2A16C0D9FF2A
:103F400017C0DAFFDF50D8B413D018C010F019C072
:103F500011F016C0D9FF17C0DAFFDF501A6E1A50E1
:103F6000126E136A4EEC1EF010501110D8A4E2D756
:103F70001BC016F01CC017F01200000E1C6E000EC5
:103F80001B6E04D0164A172A1B4A1C2A16C0D9FFDA
:103F900017C0DAFFDF50D8B413D018C010F019C022
:103FA00011F016C0D9FF17C0DAFFDF501A6E1A5091
:103FB000126E136A4EEC1EF010501110D8B4E2D7F6
:103FC0001BC016F01CC017F0120049C014F04AC004
:103FD00015F010C012F011C013F0123A133AF00E9F
:103FE000131612500F0B1312F00E121612C016F009
:103FF00013C017F014C012F015C013F0121E131ED8
:10400000124A132A495012264A5013221650125CA3
:1040100017501358D8B01200EDD7000166510001B7
:10402000671100016811D8B409D0000E0001661BA9
:10403000000E0001671B800E0001681B63C03DF08D
:1040400064C03EF065C03FF066C040F067C041F01C
:1040500068C042F0F0EC16F03DC063F03EC064F082
:104060003FC065F012000001756F070E446ED00E60
:10407000436E00017551AAEC19F0000E0001666F45
:10408000A00E0001676F400E0001686F010E000175
:104090006A6F2C0E696F000175515DEC0BF0010E1B
:1040A000446E2C0E436E00017551AAEC19F01200FB
:1040B000AECF01F04D04D8B412000A0E0118D8A4F6
:1040C0000DD04EC0D9FF4FC0DAFF000EDF6E000EDC
:1040D0004E6E010E4F6E010E4D6E12004EC0D9FF96
:1040E0004FC0DAFF01C0DFFF4E4A4F2A120049C01D
:1040F00014F04AC015F0060E126ED890113210322C
:10410000122EFBD714C012F015C013F0121E131E8E
:10411000124A132A495012264A5013221050125C98
:1041200011501358D8B01200EDD781EC21F06DEC8E
:104130001FF063EC21F0250E1F6E800E1E6E80ECCA
:104140001BF06CEC21F0E3EC20F04D50D8B4FDD71F
:10415000000E0001A36F010E0001A46FEEEC15F03C
:10416000F4D7000E1B6E19AE06D0186C191ED8B00D
:10417000192A010E1B6E18C010F019C011F0126A36
:104180008E0E136E1BC014F03DEC1CF010C018F026
:1041900011C019F012C01AF0120010C016F011C0B0
:1041A00017F008D016C0D9FF17C0DAFF12C0DFFF22
:1041B000164A172A1406D8A015061428F3E1152864
:1041C000D8B41200EFD7000E186E040E186401D098
:1041D00012008990000E116E960E106EE5EC1FF025
:1041E0008980000E116E960E106EE5EC1FF0182AF5
:1041F000ECD71E502002F3CF22F0F4CF23F01E5054
:104200002102F35023261F502002F350232622C000
:104210001EF023C01FF01200126E010E116E200E50
:104220001218D8B408D00E0E126003D0090E126016
:1042300002D0000E116E11C010F01030120018C024
:1042400010F019C011F0126A8E0E136E000E146E6B
:104250003DEC1CF010C018F011C019F012C01AF09B
:104260001200105011101210D8B406D0000E101AFF
:10427000000E111A800E121A10C010F011C011F0A9
:1042800012C012F012003FC033F040C034F0000EF4
:10429000356E000E366EA4EC0FF033C03FF034C024
:1042A00040F035C041F01200126E000E116E3A0E51
:1042B000126005D02F0E126402D0010E116E11C0D3
:1042C00010F010301200D58CD59AD596D550F80B39
:1042D0000109D56ED58E12009E9AF290D09EF28C76
:1042E000F2969D8AF28AF28E1200106EACA2FED770
:1042F00010C0ADFF1200494A4A2ABC0ED66EF29495
:0D4300001200FC0ED3161200007A440001DA
:020000040020DA
:08000000FFFFFFFFFFFFFFFF00
:020000040030CA
:0E000000000C3F1EFF8181FF0FC00FE00F407C
:00000001FF
